:100000000C942A000C94520B0C9447000C9447005B
:100010000C9447000C9447000C9447000C94470044
:100020000C9447000C9447000C9439120C94ED1179
:100030000C9447000C9447000C9447000C94470024
:100040000C9447000C9447000C9447000C94470014
:100050000C94470011241FBECFE5D8E0DEBFCDBF12
:1000600010E0A0E6B0E0E0E3F3E302C005900D92FB
:10007000A03DB107D9F711E0A0EDB0E001C01D929D
:10008000A430B107E1F70E9432150C9496190C9434
:100090000000EF92FF920F931F937B018C0120E0F1
:1000A00030E040E05FE40E94490388238CF0C801FF
:1000B000B70120E030E040E05FE40E94C1010E940F
:1000C000A9039B01AC01205030404040504806C07D
:1000D000C801B7010E94A9039B01AC01B901CA0183
:1000E0001F910F91FF90EF900895A0E0B0E0EBE733
:1000F000F0E00C945F19DC012B01FA019C91923025
:1001000008F439C1EB018881823008F433C194309E
:1001100069F4843009F02FC111969C91119789815F
:10012000981709F428C1AFEAB0E025C1843009F47A
:1001300021C18230A9F4923009F01DC19A01AD01AC
:1001400088E0EA010990AE01E90109929E0181501F
:10015000C1F7E201898111969C918923818308C1AD
:10016000923009F407C112962D903C901397EB0141
:100170008A819B811496AD90BD90CD90DC901797AD
:10018000EC80FD800E811F819101281B390BB90184
:1001900037FF04C066277727621B730B6032710537
:1001A0000CF061C0121613066CF537014801062EDB
:1001B00004C096948794779467940A94D2F721E0C8
:1001C00030E040E050E004C0220F331F441F551FB1
:1001D0006A95D2F721503040404050402E213F21B7
:1001E00040235123211531054105510521F021E01E
:1001F00030E040E050E079018A01E628F72808293C
:1002000019293CC0232BD1F1260E371E350146019A
:10021000062E04C096948794779467940A94D2F734
:1002200021E030E040E050E004C0220F331F441FC3
:10023000551F6A95D2F721503040404050402A2146
:100240003B214C215D21211531054105510521F04E
:1002500021E030E040E050E059016A01A628B728CB
:10026000C828D9280BC0821593052CF01C01AA249C
:10027000BB24650103C0EE24FF24870111969C91E5
:10028000D20111968C91981709F445C0992339F041
:10029000A80197012A193B094C095D0906C0A6016E
:1002A00095012E193F09400B510B57FD08C01182D3
:1002B0003382228224833583468357831DC081E0A5
:1002C00081833382228288279927DC01821B930B4A
:1002D000A40BB50B84839583A683B7830DC0220F2F
:1002E000331F441F551F24833583468357838281E0
:1002F000938101979383828324813581468157813D
:10030000DA01C9010197A109B1098F5F9F4FAF4F72
:10031000BF4328F30BC0918333822282EA0CFB1C7B
:100320000C1D1D1DE482F5820683178383E0808304
:10033000248135814681578157FF1AC0C901AA27F8
:1003400097FDA095BA2F81709070A070B0705695EF
:10035000479537952795822B932BA42BB52B848318
:100360009583A683B7838281938101969383828349
:10037000DF0101C0D201CD01CDB7DEB7E2E10C94BF
:100380007B19A0E2B0E0E7ECF1E00C946B19698313
:100390007A838B839C832D833E834F835887E9E048
:1003A000EE2EF12CEC0EFD1ECE010196B7010E943F
:1003B000D2048E010F5E1F4FCE010596B8010E9438
:1003C000D2048A8991E089278A8BC701B801AE01DE
:1003D000475E5F4F0E9475000E94FD03A096E6E015
:1003E0000C948719A0E2B0E0E8EFF1E00C946B19EF
:1003F00069837A838B839C832D833E834F835887C5
:10040000F9E0EF2EF12CEC0EFD1ECE010196B701A6
:100410000E94D2048E010F5E1F4FCE010596B801D7
:100420000E94D204C701B801AE01475E5F4F0E942F
:1004300075000E94FD03A096E6E00C948719A0E2E7
:10044000B0E0E5E2F2E00C945F1969837A838B8374
:100450009C832D833E834F835887CE010196BE0136
:10046000675F7F4F0E94D204CE010596BE016F5E8A
:100470007F4F0E94D2049985923088F0898982301A
:10048000C8F0943019F4823051F404C0843029F457
:10049000923081F48FEA90E0C6C0923049F420E0B7
:1004A0009A858A89981321E02A87CE010996BBC0D4
:1004B000823049F420E09A858A89981321E02A8BBA
:1004C000CE014196B0C02D843E844F8458886D88FB
:1004D0007E888F88988CEE24FF248701AA24BB2471
:1004E000650140E050E060E070E0E0E0F0E0C10174
:1004F00081709070892BE9F0E60CF71C081D191D1E
:100500009A01AB012A0D3B1D4C1D5D1D80E090E062
:10051000A0E0B0E0E614F7040805190520F481E036
:1005200090E0A0E0B0E0BA01A901480F591F6A1F8E
:100530007B1FAA0CBB1CCC1CDD1C97FE08C081E0F5
:1005400090E0A0E0B0E0A82AB92ACA2ADB2A3196B6
:10055000E032F10549F0660C771C881C991C569412
:10056000479437942794C3CFFA85EA892B893C892D
:100570008B859C85280F391F2E5F3F4F17C0CA01FE
:1005800081709070892B61F016950795F794E79428
:1005900080E090E0A0E0B0E8E82AF92A0A2B1B2BC3
:1005A00076956795579547952F5F3F4F77FDE7CF36
:1005B0000CC0440F551F661F771F17FD4160EE0CDE
:1005C000FF1C001F111F21503040403090E05907A0
:1005D00090E0690790E4790760F32B8F3C8FDB0193
:1005E000CA018F779070A070B07080349105A1051A
:1005F000B10561F447FD0AC0E114F10401051105DC
:1006000029F0405C5F4F6F4F7F4F40781A8EFE1786
:1006100011F081E08A8F4D8F5E8F6F8F78A383E01A
:10062000898FCE0149960E94FD03A096E2E10C94C9
:100630007B19A8E1B0E0EFE1F3E00C946B1969835A
:100640007A838B839C832D833E834F83588789E0F5
:10065000E82EF12CEC0EFD1ECE010196B7010E9492
:10066000D2048E010F5E1F4FCE010596B8010E9485
:10067000D2048985823040F08989823028F0C70110
:10068000B8010E944A0501C08FEF6896E6E00C941D
:100690008719A8E1B0E0EFE4F3E00C946B196983EB
:1006A0007A838B839C832D833E834F83588789E095
:1006B000E82EF12CEC0EFD1ECE010196B7010E9432
:1006C000D2048E010F5E1F4FCE010596B8010E9425
:1006D000D2048985823040F08989823028F0C701B0
:1006E000B8010E944A0501C08FEF6896E6E00C94BD
:1006F0008719A8E1B0E0EFE7F3E00C946B19698388
:100700007A838B839C832D833E834F83588789E034
:10071000E82EF12CEC0EFD1ECE010196B7010E94D1
:10072000D2048E010F5E1F4FCE010596B8010E94C4
:10073000D2048985823040F08989823028F0C7014F
:10074000B8010E944A0501C081E06896E6E00C9479
:100750008719ACE0B0E0EFEAF3E00C946F1969831D
:100760007A838B839C83CE010196BE016B5F7F4FA2
:100770000E94D2048D81823061F1823050F1843048
:1007800021F48E81882351F12EC02F81388537FDC9
:1007900020C06E812F3131051CF06623F9F023C093
:1007A0008EE190E0821B930B29853A854B855C8511
:1007B00004C056954795379527958A95D2F76623B5
:1007C000B1F050954095309521953F4F4F4F5F4F79
:1007D0000EC020E030E040E050E009C02FEF3FEFD6
:1007E0004FEF5FE704C020E030E040E050E8B9019F
:1007F000CA012C96E2E00C948B19DF92EF92FF92E3
:100800000F931F93FC01E480F58006811781D1804E
:100810008081823048F480E090E0A0E1B0E0E82AF6
:10082000F92A0A2B1B2BA5C0843009F49FC0823003
:1008300021F4EE24FF24870105C0E114F104010531
:10084000110519F4E0E0F0E096C0628173819FEF3A
:10085000623879070CF05BC022E83FEF261B370BAC
:100860002A3131052CF020E030E040E050E02AC091
:10087000B801A701022E04C0769567955795479554
:100880000A94D2F781E090E0A0E0B0E004C0880FC5
:10089000991FAA1FBB1F2A95D2F70197A109B10979
:1008A0008E219F21A023B1230097A105B10521F03E
:1008B00081E090E0A0E0B0E09A01AB01282B392B59
:1008C0004A2B5B2BDA01C9018F779070A070B07052
:1008D00080349105A105B10539F427FF09C0205CDA
:1008E0003F4F4F4F5F4F04C0215C3F4F4F4F5F4F13
:1008F000E0E0F0E02030A0E03A07A0E04A07A0E402
:100900005A0710F0E1E0F0E079018A0127C0603871
:10091000710564F5FB01E158FF4FD801C7018F77DE
:100920009070A070B07080349105A105B10539F4C4
:10093000E7FE0DC080E490E0A0E0B0E004C08FE3EB
:1009400090E0A0E0B0E0E80EF91E0A1F1B1F17FFA1
:1009500005C016950795F794E794319687E01695AC
:100960000795F794E7948A95D1F705C0EE24FF2404
:100970008701EFEFF0E06E2F679566276795902F60
:100980009F77D794DD24D7948E2F8695492F462BB9
:10099000582F5D29B701CA011F910F91FF90EF9069
:1009A000DF900895FC01DB01408151812281622F9B
:1009B0006F7770E0221F2227221F9381892F880FD3
:1009C000822B282F30E0991F9927991F11969C930D
:1009D000119721153105A9F54115510561057105DD
:1009E00011F482E037C082E89FEF13969C938E93B8
:1009F00012979A01AB0167E0220F331F441F551F66
:100A00006A95D1F783E08C930DC0220F331F441FEA
:100A1000551F12968D919C911397019713969C9355
:100A20008E931297203080E0380780E0480780E4FA
:100A3000580758F314962D933D934D935C93179755
:100A400008952F3F310579F4411551056105710570
:100A500019F484E08C93089564FF03C081E08C93C3
:100A600012C01C9210C02F57304013963C932E9307
:100A7000129783E08C9387E0440F551F661F771F02
:100A80008A95D1F7706414964D935D936D937C9322
:100A9000179708951F93DC01FB019C91923008F495
:100AA00047C08081823008F443C0943051F41196DD
:100AB0001C91843099F58181682F70E0611B710968
:100AC0003FC0843021F0923031F48230B9F181811D
:100AD000882389F12DC011961C9111978230F1F075
:100AE00081811817D9F412962D913C911397828128
:100AF00093818217930794F028173907BCF0149656
:100B00008D919D910D90BC91A02D248135814681C0
:100B10005781281739074A075B0718F4112341F05A
:100B20000AC082179307A407B50740F4112319F0F0
:100B300061E070E005C06FEF7FEF02C060E070E041
:100B4000CB011F910895DF93CF93CDB7DEB7EAE3D2
:100B5000F0E08EEF8083E7E3F0E08FE08083E4E372
:100B6000F0E08FEF8083E1E3F0E08FE08083EBE360
:100B7000F0E081E08083E8E3F0E01082E5E3F0E07C
:100B80001082E2E3F0E080EF8083CF91DF9108955F
:100B9000DF93CF9300D000D000D0CDB7DEB78A83EB
:100BA0006B834C8381E089838A81853008F0EDC0B6
:100BB0008B81883008F0E9C08C81882321F08C81FA
:100BC000813009F0E2C08A81282F30E03E832D83F6
:100BD0008D819E818230910509F448C02D813E812E
:100BE0002330310534F48D819E818130910571F07F
:100BF000CDC02D813E812330310509F467C08D8140
:100C00009E818430910509F491C0C0C08C818823F5
:100C1000A9F4AAE3B0E0EAE3F0E08081482F8B81F9
:100C2000282F30E081E090E0022E02C0880F991F4B
:100C30000A94E2F7809584238C93A8C08C8181303C
:100C400009F0A4C0AAE3B0E0EAE3F0E08081482F15
:100C50008B81282F30E081E090E0022E02C0880FC7
:100C6000991F0A94E2F7842B8C9390C08C8188237F
:100C7000A9F4A7E3B0E0E7E3F0E08081482F8B819F
:100C8000282F30E081E090E0022E02C0880F991FEB
:100C90000A94E2F7809584238C9378C08C8181300C
:100CA00009F074C0A7E3B0E0E7E3F0E08081482FEB
:100CB0008B81282F30E081E090E0022E02C0880F67
:100CC000991F0A94E2F7842B8C9360C08C8188234F
:100CD000A9F4A4E3B0E0E4E3F0E08081482F8B8145
:100CE000282F30E081E090E0022E02C0880F991F8B
:100CF0000A94E2F7809584238C9348C08C818130DC
:100D000009F044C0A4E3B0E0E4E3F0E08081482FC0
:100D10008B81282F30E081E090E0022E02C0880F06
:100D2000991F0A94E2F7842B8C9330C08C8188231E
:100D3000A9F4A1E3B0E0E1E3F0E08081482F8B81EA
:100D4000282F30E081E090E0022E02C0880F991F2A
:100D50000A94E2F7809584238C9318C08C818130AB
:100D6000A9F4A1E3B0E0E1E3F0E08081482F8B81BA
:100D7000282F30E081E090E0022E02C0880F991FFA
:100D80000A94E2F7842B8C9301C0198289812696FC
:100D90000FB6F894DEBF0FBECDBFCF91DF9108959F
:100DA000DF93CF9300D000D000D0CDB7DEB78A83D9
:100DB0006B834C8381E089838A81853008F0EDC0A4
:100DC0008B81883008F0E9C08C81882321F08C81E8
:100DD000813009F0E2C08A81282F30E03E832D83E4
:100DE0008D819E818230910509F448C02D813E811C
:100DF0002330310534F48D819E818130910571F06D
:100E0000CDC02D813E812330310509F467C08D812D
:100E10009E818430910509F491C0C0C08C818823E3
:100E2000A9F4ABE3B0E0EBE3F0E08081482F8B81E5
:100E3000282F30E081E090E0022E02C0880F991F39
:100E40000A94E2F7809584238C93A8C08C8181302A
:100E500009F0A4C0ABE3B0E0EBE3F0E08081482F01
:100E60008B81282F30E081E090E0022E02C0880FB5
:100E7000991F0A94E2F7842B8C9390C08C8188236D
:100E8000A9F4A8E3B0E0E8E3F0E08081482F8B818B
:100E9000282F30E081E090E0022E02C0880F991FD9
:100EA0000A94E2F7809584238C9378C08C818130FA
:100EB00009F074C0A8E3B0E0E8E3F0E08081482FD7
:100EC0008B81282F30E081E090E0022E02C0880F55
:100ED000991F0A94E2F7842B8C9360C08C8188233D
:100EE000A9F4A5E3B0E0E5E3F0E08081482F8B8131
:100EF000282F30E081E090E0022E02C0880F991F79
:100F00000A94E2F7809584238C9348C08C818130C9
:100F100009F044C0A5E3B0E0E5E3F0E08081482FAC
:100F20008B81282F30E081E090E0022E02C0880FF4
:100F3000991F0A94E2F7842B8C9330C08C8188230C
:100F4000A9F4A2E3B0E0E2E3F0E08081482F8B81D6
:100F5000282F30E081E090E0022E02C0880F991F18
:100F60000A94E2F7809584238C9318C08C81813099
:100F7000A9F4A2E3B0E0E2E3F0E08081482F8B81A6
:100F8000282F30E081E090E0022E02C0880F991FE8
:100F90000A94E2F7842B8C9301C0198289812696EA
:100FA0000FB6F894DEBF0FBECDBFCF91DF9108958D
:100FB000DF93CF93CDB7DEB728970FB6F894DEBF97
:100FC0000FBECDBF8B836C835E834D8381E08A83AC
:100FD0008B81853008F0ADC08C81883008F0A9C0C5
:100FE0008D819E81009709F4A4C08B81282F30E069
:100FF00038872F834F81588542305105C9F18F8141
:1010000098858330910534F42F813885213031055E
:1010100071F090C04F8158854330510509F449C0A3
:101020008F8198858430910509F463C083C0E9E31A
:10103000F0E08081282F30E08C81882F90E0A9019A
:1010400002C0559547958A95E2F7CA018170898358
:101050008981882321F4ED81FE8110826BC0898112
:10106000813009F067C0ED81FE8181E0808362C03C
:10107000E6E3F0E08081282F30E08C81882F90E03B
:10108000A90102C0559547958A95E2F7CA0181707A
:1010900089838981882321F4ED81FE8110824AC0F1
:1010A0008981813009F046C0ED81FE8181E0808335
:1010B00041C0E3E3F0E08081282F30E08C81882F6D
:1010C00090E0A90102C0559547958A95E2F7CA01BB
:1010D000817089838981882321F4ED81FE811082CA
:1010E00029C08981813031F5ED81FE8181E08083E5
:1010F00021C0E0E3F0E08081282F30E08C81882F50
:1011000090E0A90102C0559547958A95E2F7CA017A
:10111000817089838981882321F4ED81FE81108289
:1011200009C08981813031F4ED81FE8181E08083C5
:1011300001C01A828A8128960FB6F894DEBF0FBECE
:10114000CDBFCF91DF910895DF93CF9300D000D032
:101150000F92CDB7DEB78A836B8381E089838A8162
:101160008530D0F58B81882319F08B818130A1F5F2
:101170008A81282F30E03D832C838C819D818230B1
:101180009105D9F02C813D812330310534F48C81D7
:101190009D818130910561F020C02C813D812330FB
:1011A000310581F08C819D818430910581F015C0DD
:1011B000EAE3F0E08B81808310C0E7E3F0E08B810D
:1011C00080830BC0E4E3F0E08B81808306C0E7E31B
:1011D000F0E08B81808301C0198289810F900F908C
:1011E0000F900F900F90CF91DF910895DF93CF93E1
:1011F00000D000D00F92CDB7DEB78A836B8381E039
:1012000089838A81853098F58A81282F30E03D8353
:101210002C838C819D8182309105D9F02C813D8178
:101220002330310534F48C819D818130910561F04A
:101230001EC02C813D812330310581F08C819D8140
:101240008430910581F013C0EBE3F0E08B81808363
:101250000EC0E8E3F0E08B81808309C0E5E3F0E0B5
:101260008B81808304C0E2E3F0E08B8180838981FD
:101270000F900F900F900F900F90CF91DF910895E6
:10128000DF93CF9300D000D000D0CDB7DEB78A83F4
:101290007C836B8381E089838A81853008F040C03C
:1012A0008B819C810097E1F18A81282F30E03E8379
:1012B0002D838D819E8182309105E9F02D813E81C3
:1012C0002330310534F48D819E818130910561F0A8
:1012D00028C02D813E8123303105A1F08D819E8172
:1012E00084309105B1F01DC0E9E3F0E08081EB812D
:1012F000FC81808316C0E6E3F0E08081EB81FC8115
:1013000080830FC0E3E3F0E08081EB81FC81808388
:1013100008C0E0E3F0E08081EB81FC81808301C0C4
:101320001982898126960FB6F894DEBF0FBECDBF15
:10133000CF91DF910895DF93CF9300D000D0CDB748
:10134000DEB79B838A836C8381E089838C818330C1
:1013500088F48A819B81009769F08C81882F90E0C6
:10136000880F991FFC01E053FF4F8A819B81918375
:10137000808301C0198289810F900F900F900F9088
:10138000CF91DF910895DF93CF93CDB7DEB72B9741
:101390000FB6F894DEBF0FBECDBF8A836B8381E0AA
:1013A00089838A81282F30E03B872A878A859B851D
:1013B0008130910509F485C02A853B8522303105AD
:1013C00009F4F9C08A859B85009709F023C18B81B8
:1013D000282F30E0398728878885998581309105C5
:1013E00061F128853985223031052CF4888599856D
:1013F000009769F064C0288539852230310599F15C
:10140000888599858330910509F443C058C0A5E5C6
:10141000B0E0E5E5F0E0808182608C93A5E5B0E086
:10142000E5E5F0E0808181608C93ABE5B0E0EBE531
:10143000F0E0808180648C93EEC0A5E5B0E0E5E546
:10144000F0E0808182608C93A5E5B0E0E5E5F0E016
:1014500080818E7F8C93ABE5B0E0EBE5F0E080819E
:1014600080648C93D8C0A5E5B0E0E5E5F0E080812C
:1014700081608C93A5E5B0E0E5E5F0E080818D7FAB
:101480008C93ABE5B0E0EBE5F0E0808180648C9379
:10149000C2C0A5E5B0E0E5E5F0E080818E7F8C93E9
:1014A000A5E5B0E0E5E5F0E080818D7F8C93ABE5CC
:1014B000B0E0EBE5F0E0808180648C93ACC01982F1
:1014C000AAC08B81282F30E03F832E838E819F819D
:1014D0008130910561F12E813F81223031052CF45C
:1014E0008E819F81009769F064C02E813F812230F8
:1014F000310599F18E819F818330910509F443C0B4
:1015000058C0A5E5B0E0E5E5F0E0808188608C9307
:10151000A5E5B0E0E5E5F0E0808184608C93ABE583
:10152000B0E0EBE5F0E0808180688C9374C0A5E5C5
:10153000B0E0E5E5F0E0808188608C93A5E5B0E05F
:10154000E5E5F0E080818B7F8C93ABE5B0E0EBE5E7
:10155000F0E0808180688C935EC0A5E5B0E0E5E5B1
:10156000F0E0808184608C93A5E5B0E0E5E5F0E0F3
:101570008081877F8C93ABE5B0E0EBE5F0E0808184
:1015800080688C9348C0A5E5B0E0E5E5F0E0808197
:10159000877F8C93A5E5B0E0E5E5F0E080818B7F67
:1015A0008C93ABE5B0E0EBE5F0E0808180688C9354
:1015B00032C0198230C08B81282F30E03D832C83CC
:1015C0008C819D81009731F02C813D812130310546
:1015D00081F01EC0A4E5B0E0E4E5F0E08081806425
:1015E0008C93ABE5B0E0EBE5F0E0808180628C931A
:1015F00012C0A4E5B0E0E4E5F0E080818F7B8C933D
:10160000ABE5B0E0EBE5F0E0808180628C9303C055
:10161000198201C0198289812B960FB6F894DEBF1A
:101620000FBECDBFCF91DF910895DF93CF9300D050
:1016300000D0CDB7DEB78A8381E089838A81282FE5
:1016400030E03C832B838B819C818130910589F034
:101650002B813C8122303105A1F08B819C81009748
:10166000C1F4ABE5B0E0EBE5F0E080818F7B8C93DB
:1016700011C0ABE5B0E0EBE5F0E080818F778C93B3
:1016800009C0ABE5B0E0EBE5F0E080818F7D8C93A5
:1016900001C0198289810F900F900F900F90CF9108
:1016A000DF9108951F920F920FB60F9211242F937E
:1016B0003F934F935F936F937F938F939F93AF93DA
:1016C000BF93EF93FF93DF93CF93CDB7DEB78091B6
:1016D000D0009091D100009729F0E091D000F091D6
:1016E000D1000995CF91DF91FF91EF91BF91AF911B
:1016F0009F918F917F916F915F914F913F912F912A
:101700000F900FBE0F901F901895DF93CF93CDB71A
:10171000DEB7AFE5B0E0EFE5F0E0808180688C9364
:10172000CF91DF910895DF93CF93CDB7DEB7AFE5CB
:10173000B0E0EFE5F0E080818F778C93CF91DF917F
:101740000895DF93CF93CDB7DEB765970FB6F894C2
:10175000DEBF0FBECDBF9D8B8C8BEC89FD898FEFDB
:10176000808381E08A8B1F868C899D89009709F48C
:10177000ECC0198AE5C08989882F90E0FC01E95303
:10178000FF4F908184E0692F40E00E94D006188AC4
:10179000C1C08889882F90E0FC01E553FF4F9081FC
:1017A0009E012D5E3F4F84E0692FA9010E94D8075A
:1017B0008B89882309F0ABC080E090E0A0EAB1E417
:1017C0008B879C87AD87BE876B857C858D859E8545
:1017D00020E030E04AEF54E40E941F02DC01CB011C
:1017E0008F839887A987BA876F81788589859A853D
:1017F00020E030E040E85FE30E94790388232CF486
:1018000081E090E09E838D833FC06F8178858985DC
:101810009A8520E03FEF4FE757E40E94190318161E
:101820004CF56B857C858D859E8520E030E040E21F
:1018300051E40E941F02DC01CB01BC01CD010E94DA
:101840004900DC01CB019E838D830FC088EC90E0C2
:101850009C838B838B819C810197F1F79C838B8385
:101860008D819E8101979E838D838D819E810097BE
:1018700069F714C06F81788589859A850E9449002F
:10188000DC01CB019E838D838D819E819A83898328
:1018900089819A810197F1F79A8389838889882FB2
:1018A00090E0FC01E553FF4F90819E012D5E3F4F7C
:1018B00084E0692FA9010E94D8070FC08889882F6A
:1018C00090E0FC01E553FF4F90819E012D5E3F4F5C
:1018D00084E0692FA9010E94D8078B89882371F3BE
:1018E00081E08F878989482F50E08889282F30E050
:1018F000CA01880F991F880F991F820F931FFC013F
:10190000E954FF4F8081EC89FD89808307C0888975
:101910008F5F888B8889843008F43BCF8989882F32
:1019200090E0FC01E953FF4F908184E0692F41E092
:101930000E94D0068F85882349F489898F5F898B1F
:101940008989843008F417CF01C01A8A8A8965967C
:101950000FB6F894DEBF0FBECDBFCF91DF910895D3
:10196000DF93CF93CDB7DEB7E8970FB6F894DEBF1D
:101970000FBECDBF82E062E040E00E94D00680E072
:1019800090E0ACE0B2E48DAB9EABAFABB8AF6DA96D
:101990007EA98FA998AD20E030E04AEF54E40E9480
:1019A0001F02DC01CB0189AB9AABABABBCAB69A925
:1019B0007AA98BA99CA920E030E040E85FE30E946F
:1019C000790388232CF481E090E098AB8FA73FC087
:1019D00069A97AA98BA99CA920E03FEF4FE757E4BA
:1019E0000E94190318164CF56DA97EA98FA998AD10
:1019F00020E030E040E251E40E941F02DC01CB0114
:101A0000BC01CD010E944900DC01CB0198AB8FA73E
:101A10000FC088EC90E09EA78DA78DA59EA501978D
:101A2000F1F79EA78DA78FA598A9019798AB8FA7CF
:101A30008FA598A9009769F714C069A97AA98BA9FD
:101A40009CA90E944900DC01CB0198AB8FA78FA510
:101A500098A99CA78BA78BA59CA50197F1F79CA79C
:101A60008BA788E30E949C0E80E090E0A0EAB0E49F
:101A70008FA398A7A9A7BAA76FA178A589A59AA5AA
:101A800020E030E04AEF54E40E941F02DC01CB0169
:101A90008BA39CA3ADA3BEA36BA17CA18DA19EA192
:101AA00020E030E040E85FE30E94790388232CF4D3
:101AB00081E090E09AA389A33FC06BA17CA18DA196
:101AC0009EA120E03FEF4FE757E40E94190318164C
:101AD0004CF56FA178A589A59AA520E030E040E2F9
:101AE00051E40E941F02DC01CB01BC01CD010E9428
:101AF0004900DC01CB019AA389A30FC088EC90E0D8
:101B000098A38F8F8F8D98A10197F1F798A38F8F4E
:101B100089A19AA101979AA389A389A19AA1009763
:101B200069F714C06BA17CA18DA19EA10E94490000
:101B3000DC01CB019AA389A389A19AA19E8F8D8FE5
:101B40008D8D9E8D0197F1F79E8F8D8F8EE00E9477
:101B50009C0E80E090E0A0EAB0E4898F9A8FAB8F72
:101B6000BC8F698D7A8D8B8D9C8D20E030E04AEFA3
:101B700054E40E941F02DC01CB018D8B9E8BAF8B46
:101B8000B88F6D897E898F89988D20E030E040E89C
:101B90005FE30E94790388232CF481E090E09C8B22
:101BA0008B8B3FC06D897E898F89988D20E03FEFB8
:101BB0004FE757E40E94190318164CF5698D7A8D8A
:101BC0008B8D9C8D20E030E040E251E40E941F02AA
:101BD000DC01CB01BC01CD010E944900DC01CB013D
:101BE0009C8B8B8B0FC088EC90E09A8B898B8989BA
:101BF0009A890197F1F79A8B898B8B899C89019738
:101C00009C8B8B8B8B899C89009769F714C06D899D
:101C10007E898F89988D0E944900DC01CB019C8BC5
:101C20008B8B8B899C89988B8F878F85988901975F
:101C3000F1F7988B8F8781E00E949C0E80E090E006
:101C4000A0EAB0E48B879C87AD87BE876B857C85D7
:101C50008D859E8520E030E04AEF54E40E941F020B
:101C6000DC01CB018F839887A987BA876F8178853C
:101C700089859A8520E030E040E85FE30E9479039F
:101C800088232CF481E090E09E838D833FC06F8198
:101C9000788589859A8520E03FEF4FE757E40E94D9
:101CA000190318164CF56B857C858D859E8520E083
:101CB00030E040E251E40E941F02DC01CB01BC0194
:101CC000CD010E944900DC01CB019E838D830FC0B2
:101CD00088EC90E09C838B838B819C810197F1F74A
:101CE0009C838B838D819E8101979E838D838D81C3
:101CF0009E81009769F714C06F81788589859A85E0
:101D00000E944900DC01CB019E838D838D819E81E1
:101D10009A83898389819A810197F1F79A838983CC
:101D200080E00E949C0EE8960FB6F894DEBF0FBECE
:101D3000CDBFCF91DF910895DF93CF93CDB7DEB7BD
:101D40002F970FB6F894DEBF0FBECDBF8F8782E00E
:101D500060E040E00E94D00682E061E040E00E9446
:101D6000D00682E062E040E00E94D00683E06F850A
:101D70000E94F60882E062E041E00E94D00680E026
:101D800090E0A0E8BFE38B879C87AD87BE876B851B
:101D90007C858D859E8520E030E04AEF54E40E94EA
:101DA0001F02DC01CB018F839887A987BA876F81D7
:101DB000788589859A8520E030E040E85FE30E94DD
:101DC000790388232CF481E090E09E838D833FC0CB
:101DD0006F81788589859A8520E03FEF4FE757E44A
:101DE0000E94190318164CF56B857C858D859E85A0
:101DF00020E030E040E251E40E941F02DC01CB0110
:101E0000BC01CD010E944900DC01CB019E838D8382
:101E10000FC088EC90E09C838B838B819C81019721
:101E2000F1F79C838B838D819E8101979E838D83A7
:101E30008D819E81009769F714C06F8178858985AF
:101E40009A850E944900DC01CB019E838D838D81A0
:101E50009E819A83898389819A810197F1F79A8378
:101E6000898382E062E040E00E94D0062F960FB6A0
:101E7000F894DEBF0FBECDBFCF91DF910895DF9301
:101E8000CF93CDB7DEB72F970FB6F894DEBF0FBE56
:101E9000CDBF8F8782E060E041E00E94D00682E003
:101EA00061E040E00E94D00682E062E040E00E94F3
:101EB000D00683E06F850E94F60882E062E041E090
:101EC0000E94D00680E090E0A0E8BFE38B879C876B
:101ED000AD87BE876B857C858D859E8520E030E053
:101EE0004AEF54E40E941F02DC01CB018F839887E4
:101EF000A987BA876F81788589859A8520E030E047
:101F000040E85FE30E94790388232CF481E090E0AD
:101F10009E838D833FC06F81788589859A8520E077
:101F20003FEF4FE757E40E94190318164CF56B85F5
:101F30007C858D859E8520E030E040E251E40E9462
:101F40001F02DC01CB01BC01CD010E944900DC0174
:101F5000CB019E838D830FC088EC90E09C838B83A4
:101F60008B819C810197F1F79C838B838D819E816E
:101F700001979E838D838D819E81009769F714C0A0
:101F80006F81788589859A850E944900DC01CB01A3
:101F90009E838D838D819E819A83898389819A8195
:101FA0000197F1F79A83898382E062E040E00E9422
:101FB000D0062F960FB6F894DEBF0FBECDBFCF91DF
:101FC000DF910895DF93CF9300D000D0CDB7DEB777
:101FD0009C838B831A8219820FC02B813C8189815B
:101FE0009A81F901E80FF91F80810E943F0F8981D2
:101FF0009A8101969A8389832B813C8189819A8178
:10200000F901E80FF91F8081882339F70F900F90AD
:102010000F900F90CF91DF910895DF93CF93CDB7BD
:10202000DEB76B970FB6F894DEBF0FBECDBF688FDB
:10203000798F8A8F9B8F81E08B83888D998DAA8D74
:10204000BB8D0097A105B10521F480E30E943F0FED
:102050004AC0888D998DAA8DBB8DBB230CF043C0DF
:102060008DE20E943F0F888D998DAA8DBB8DB09512
:10207000A095909581959F4FAF4FBF4F888F998FB7
:10208000AA8FBB8F30C0888D998DAA8DBB8D2AE019
:1020900030E040E050E0BC01CD010E942219DC019B
:1020A000CB0189838B81282F30E08981482F405DC7
:1020B000CE010496FC01E20FF31F4083888D998DB9
:1020C000AA8DBB8D2AE030E040E050E0BC01CD019C
:1020D0000E942219DA01C901888F998FAA8FBB8FBC
:1020E0008B818F5F8B83888D998DAA8DBB8D009797
:1020F000A105B10541F68B8181508A830EC08A818A
:10210000282F30E0CE010496FC01E20FF31F8081FE
:102110000E943F0F8A8181508A838A81882379F7C0
:102120006B960FB6F894DEBF0FBECDBFCF91DF9197
:102130000895DF93CF9300D000D00F92CDB7DEB7D4
:102140008A836B8381E089838B818832D8F48A818A
:10215000282F30E03D832C838C819D81009731F0C6
:102160002C813D812130310531F00AC08B818058AE
:102170000E949C0E08C08B8180540E949C0E03C05C
:10218000198201C0198289810F900F900F900F90D2
:102190000F90CF91DF910895DF93CF9300D000D0BF
:1021A000CDB7DEB78A837C836B838A81883018F54C
:1021B0008A81882F90E00896880F991F880F991FB1
:1021C000880F991F0E949C0E19820EC08981282FAA
:1021D00030E08B819C81FC01E20FF31F80810E9423
:1021E0003F0F89818F5F89838981883078F380E010
:1021F00061E00E9499100F900F900F900F90CF9177
:10220000DF910895DF93CF930F92CDB7DEB7898327
:102210008981883018F489810E943F0F0F90CF91F7
:10222000DF910895DF93CF93CDB7DEB7A3E5B0E09C
:10223000E3E5F0E080818F7B8C93A3E5B0E0E3E5FC
:10224000F0E08081877F8C93A9E5B0E0E9E5F0E0DC
:10225000808181608C93E2E5F0E080EC8083A3E5EF
:10226000B0E0E3E5F0E0808182608C93A3E5B0E02C
:10227000E3E5F0E080818B7F8C93A3E5B0E0E3E5BC
:10228000F0E080818E7F8C93CF91DF910895DF9372
:10229000CF93CDB7DEB7AFE4B0E0EFE4F0E08081FC
:1022A00082608C93AFE4B0E0EFE4F0E080818E7F59
:1022B0008C93AEE4B0E0EEE4F0E0808180618C933A
:1022C000AEE4B0E0EEE4F0E0808188608C93AFE4AF
:1022D000B0E0EFE4F0E0808180688C93AFE4B0E0A0
:1022E000EFE4F0E080818F7B8C93E6E4F0E08FE117
:1022F0009EE491838083AEE4B0E0EEE4F0E0808180
:1023000082608C93AEE4B0E0EEE4F0E080818B7FFD
:102310008C93AEE4B0E0EEE4F0E080818E7F8C93AD
:10232000CF91DF910895DF93CF9300D0CDB7DEB783
:102330009A838983EAE4F0E089819A81918380839A
:102340000F900F90CF91DF910895DF93CF9300D03E
:102350000F92CDB7DEB79B838A8381E089838A8120
:102360009B81009739F08A819B819093D70080935D
:10237000D60001C0198289810F900F900F90CF91E4
:10238000DF910895DF93CF930F92CDB7DEB78983A6
:10239000ECE5F0E0898180830F90CF91DF91089583
:1023A000DF93CF9300D00F92CDB7DEB79B838A83A4
:1023B00081E089838A819B81009739F08A819B81A2
:1023C0009093D9008093D80001C0198289810F9021
:1023D0000F900F90CF91DF9108951F920F920FB63B
:1023E0000F9211242F933F934F935F936F937F939B
:1023F0008F939F93AF93BF93EF93FF93DF93CF930D
:10240000CDB7DEB78091DA009091DB000196909312
:10241000DB008093DA008091DA009091DB002FE0FE
:102420008334920799F4E2E5F0E080EC8083109227
:10243000DB001092DA008091D6009091D7000097CF
:1024400029F0E091D600F091D7000995CF91DF9166
:10245000FF91EF91BF91AF919F918F917F916F917C
:102460005F914F913F912F910F900FBE0F901F9052
:1024700018951F920F920FB60F9211242F933F932E
:102480004F935F936F937F938F939F93AF93BF937C
:10249000EF93FF93DF93CF93CDB7DEB78091DC004E
:1024A0009091DD0001969093DD008093DC00809197
:1024B000DC009091DD0027E28031920779F41092E0
:1024C000DD001092DC008091D8009091D900009737
:1024D00029F0E091D800F091D9000995CF91DF91D2
:1024E000FF91EF91BF91AF919F918F917F916F91EC
:1024F0005F914F913F912F910F900FBE0F901F90C2
:102500001895DF93CF9300D00F92CDB7DEB780E65A
:1025100090E00E94E20F80E091E00E94A10B809188
:1025200000018F3FC1F38981893021F481E08093DC
:10253000E10002C01092E10080910001823769F44D
:102540008091E100882349F48091DF008F5F8093C0
:10255000DF0081E08093E2000DC0809100018C36A5
:1025600049F48091E200813029F48091E0008F5F8E
:102570008093E0008091E000833021F08091E000C2
:10258000863029F48091E0008F5F8093E000809195
:10259000DF00823021F08091DF00853029F48091C6
:1025A000DF008F5F8093DF009091E0008091DF007B
:1025B000292F281B822F8983898188231CF48981F4
:1025C00081958983998180E0692F0E94991080917B
:1025D0000001805380930301809103018A3008F049
:1025E000CBC08091DE00882F90E09C01220F331F2A
:1025F000C901880F991F880F991F820F931F982F69
:1026000080910001890F80538093DE00998180E0E2
:10261000692F0E9499108091DE00882F90E0A0E041
:10262000B0E0BC01CD010E940D108981282F332715
:1026300027FD30953B832A838A819B8184309105D5
:1026400009F44BC02A813B81253031055CF48A8135
:102650009B8181309105C9F02A813B81223031056F
:1026600071F18AC08A819B818730910509F45DC030
:102670002A813B812830310509F471C08A819B8110
:102680008530910509F443C077C08091DE00882F22
:1026900090E09C01220F331FC901880F991F880FFA
:1026A000991F820F931F8093E7009091E70080911C
:1026B000E800890F8093EA001092DE005DC08091EF
:1026C000DE008093E8009091E7008091E800890F98
:1026D0008093EA001092DE004FC08091DE00882FC8
:1026E00090E09C01220F331FC901880F991F880FAA
:1026F000991F820F931F8093E3009091E3008091D4
:10270000E400890F8093E9001092DE0035C08091CB
:10271000DE008093E4009091E3008091E400890F53
:102720008093E9001092DE0027C08091DE00882FA0
:1027300090E09C01220F331FC901880F991F880F59
:10274000991F820F931F8093E5009091E50080917F
:10275000E600890F8093EB001092DE000DC080919F
:10276000DE008093E6009091E5008091E600890FFD
:102770008093EB001092DE0080910001853609F015
:10278000CACE0F900F900F90CF91DF910895DF93F5
:10279000CF9300D00F92CDB7DEB781E060E00E940A
:1027A000991080E690E00E94E20F80E091E00E94A4
:1027B000A10B809100018F3FC1F38981893021F401
:1027C00081E08093EE0002C01092EE008091000143
:1027D000823769F48091EE00882349F48091EC00FF
:1027E0008F5F8093EC0081E08093EF000DC08091BB
:1027F00000018C3649F48091EF00813029F48091FA
:10280000ED008F5F8093ED008091ED00833021F02B
:102810008091ED00863029F48091ED008F5F8093E8
:10282000ED008091EC00823021F08091EC00853049
:1028300029F48091EC008F5F8093EC009091ED0083
:102840008091EC00292F281B822F8983898188237E
:102850001CF4898181958983998181E0692F0E9487
:1028600099108091000180538093030180910301AE
:102870008A3008F0CBC08091DE00882F90E09C0168
:10288000220F331FC901880F991F880F991F820FCC
:10289000931F982F80910001890F80538093DE0051
:1028A000998181E0692F0E9499108091DE00882F24
:1028B00090E0A0E0B0E0BC01CD010E940D10898144
:1028C000282F332727FD30953B832A838A819B81DC
:1028D0008430910509F44BC02A813B8125303105B4
:1028E0005CF48A819B8181309105C9F02A813B810A
:1028F0002230310571F18AC08A819B818730910530
:1029000009F45DC02A813B812830310509F471C08A
:102910008A819B818530910509F443C077C08091FD
:10292000DE00882F90E09C01220F331FC901880F21
:10293000991F880F991F820F931F8093F400909125
:10294000F4008091F500890F8093F7001092DE006B
:102950005DC08091DE008093F5009091F40080913D
:10296000F500890F8093F7001092DE004FC0809130
:10297000DE00882F90E09C01220F331FC901880FD1
:10298000991F880F991F820F931F8093F0009091D9
:10299000F0008091F100890F8093F6001092DE0024
:1029A00035C08091DE008093F1009091F00080911D
:1029B000F100890F8093F6001092DE0027C080910D
:1029C000DE00882F90E09C01220F331FC901880F81
:1029D000991F880F991F820F931F8093F200909187
:1029E000F2008091F300890F8093F8001092DE00CE
:1029F0000DC08091DE008093F3009091F2008091F1
:102A0000F300890F8093F8001092DE00809100019E
:102A1000853609F0CACE0F900F900F90CF91DF91BD
:102A20000895DF93CF93CDB7DEB781E00E949C0E6F
:102A300081E060E00E9499108EE690E00E94E20F33
:102A400080E091E00E94A10B809100018F3FC1F3D3
:102A500080910001853619F481E08093FE00CF91CA
:102A6000DF910895DF93CF9300D0CDB7DEB70E94FA
:102A7000A3050E94B00C0E94850B8EEC96E10E948B
:102A8000A5110E9412118FEF98E160E00E949B094E
:102A900080E061E00E94C3098EE690E00E94E20FB0
:102AA00080910101813049F480E06DE00E9499102D
:102AB00088E790E00E94E20F0CC080910101823013
:102AC00041F480E06DE00E9499108BE790E00E9455
:102AD000E20F81E060E00E9499108EE790E00E9492
:102AE000E20F80E091E00E94A10B809100018F3FF6
:102AF000C1F3809100018053809303018091030111
:102B00008A30A8F48091DE00882F90E09C01220F8B
:102B1000331FC901880F991F880F991F820F931FB8
:102B2000982F80910001890F80538093DE0080915F
:102B3000DE00282F30E03A83298389819A81823010
:102B4000910509F45CC029813A812330310509F4EB
:102B500095C089819A818130910509F014C1109244
:102B6000DE0081E00E949C0E0E9481128091000193
:102B7000833771F181E060E00E9499108EE890E067
:102B80000E94E20F80E091E00E94A10B8091000181
:102B90008F3FC1F3809100018053809303018091A6
:102BA00003018A30A8F480910101882F90E09C01F4
:102BB000220F331FC901880F991F880F991F820F99
:102BC000931F982F80910001890F805380930101FA
:102BD0001092DE0080E091E00E94A10B8091000144
:102BE0008F3FC1F380910001833719F481E0809316
:102BF000F90081E00E949C0E1092DE00C4C081E0CA
:102C00000E949C0E1092DE0080910001833799F1A2
:102C10000E94C71381E060E00E9499108EE890E066
:102C20000E94E20F80E091E00E94A10B80910001E0
:102C30008F3FC1F380910001805380930301809105
:102C400003018A30A8F480910201882F90E09C0152
:102C5000220F331FC901880F991F880F991F820FF8
:102C6000931F982F80910001890F80538093020158
:102C700081E00E949C0E1092DE0085C081E00E94DF
:102C80009C0E81E060E00E94991088E990E00E942B
:102C9000E20F1092DE0080E091E00E94A10B809193
:102CA00000018F3FC1F380910001805380930301A5
:102CB000809103018A30A8F48091DE00882F90E093
:102CC0009C01220F331FC901880F991F880F991F7C
:102CD000820F931F982F80910001890F805380935A
:102CE000DE008091DE00813009F03FC00E941115A6
:102CF00081E06AE00E94991088EA90E00E94E20F69
:102D00001092DE0080E091E00E94A10B8091000112
:102D10008F3FC1F31092DE008091000180538093B9
:102D200003018091DE00882F90E09C01220F331F69
:102D3000C901880F991F880F991F820F931F982F21
:102D400080910001890F80538093DE008091000103
:102D5000873611F41092FE008091DE00823091F6E9
:102D60001092FE0081E00E949C0E8091DE00823075
:102D700009F091CF81E00E949C0E1092FE0010920B
:102D8000DE001092DE0080910001873609F084CECB
:102D90001092FE0081E00E949C0E7ECEDF93CF93C6
:102DA000CDB7DEB78091F900813009F07DC1809107
:102DB000EB008B33A9F58091E9008B3388F51092F5
:102DC000EB008091E9008F5F8093E9009091EA0029
:102DD0008091F7009817C9F49091E9008091F6006E
:102DE000981799F49091EB008091F800981769F486
:102DF0008091F900813049F49091010180910201A4
:102E0000981719F481E08093FA008091FA008130DC
:102E100009F0A2C081E065E041E00E94D0069CC0BC
:102E20008091EB008B33D9F58091E9008B33B9F5B4
:102E30008091EA008C3098F51092E9001092EB0036
:102E40008091EA008F5F8093EA009091EA00809180
:102E5000F7009817C9F49091E9008091F60098174F
:102E600099F49091EB008091F800981769F48091A3
:102E7000F900813049F49091010180910201981785
:102E800019F481E08093FA008091FA00813009F012
:102E900063C081E065E041E00E94D0065DC08091A2
:102EA000EA008C3009F058C08091EB008B3309F0B8
:102EB00053C08091E9008B3309F04EC081E08093CC
:102EC000EA001092E9001092EB008091010181303C
:102ED00061F482E08093010180E06DE00E9499102E
:102EE0008BE790E00E94E20F0FC0809101018230D9
:102EF00059F481E08093010180E06DE00E94991017
:102F000088E790E00E94E20F9091EA008091F7003C
:102F10009817C9F49091E9008091F600981799F4F8
:102F20009091EB008091F800981769F48091F90076
:102F3000813049F49091010180910201981719F4B0
:102F400081E08093FA008091FA00813029F481E0D9
:102F500065E041E00E94D0068091EB008B3378F56C
:102F60008091EB008F5F8093EB009091EA0080915D
:102F7000F7009817C9F49091E9008091F60098172E
:102F800099F49091EB008091F800981769F4809182
:102F9000F900813049F49091010180910201981764
:102FA00019F481E08093FA008091FA00813039F4BD
:102FB0001092FA0081E065E041E00E94D00680E0D6
:102FC00061E00E9499108091EA009AE0692F0E94C6
:102FD0001619882F90E0A0E0B0E0BC01CD010E945E
:102FE0000D1080E062E00E9499108091EA009AE062
:102FF000692F0E941619892F882F90E0A0E0B0E079
:10300000BC01CD010E940D108AE30E943F0F80E0B9
:1030100064E00E9499108091E9009AE0692F0E9473
:103020001619882F90E0A0E0B0E0BC01CD010E940D
:103030000D1080E065E00E9499108091E9009AE00F
:10304000692F0E941619892F882F90E0A0E0B0E028
:10305000BC01CD010E940D108AE30E943F0F80E069
:1030600067E00E9499108091EB009AE0692F0E941E
:103070001619882F90E0A0E0B0E0BC01CD010E94BD
:103080000D1080E068E00E9499108091EB009AE0BA
:10309000692F0E941619892F882F90E0A0E0B0E0D8
:1030A000BC01CD010E940D108091FE00813009F01D
:1030B000A3C081E060E00E9499108091FD008B33F5
:1030C00061F48091FB008B3340F41092FD008091FD
:1030D000FB008F5F8093FB0011C08091FD008B335C
:1030E00069F48091FB008B3349F41092FB0010923D
:1030F000FD008091FC008F5F8093FC008091FD00BB
:103100008B3328F48091FD008F5F8093FD0081E078
:1031100061E00E9499108091FC009AE0692F0E9462
:103120001619882F90E0A0E0B0E0BC01CD010E940C
:103130000D1081E062E00E9499108091FC009AE0FD
:10314000692F0E941619892F882F90E0A0E0B0E027
:10315000BC01CD010E940D108AE30E943F0F81E067
:1031600064E00E9499108091FB009AE0692F0E9410
:103170001619882F90E0A0E0B0E0BC01CD010E94BC
:103180000D1081E065E00E9499108091FB009AE0AB
:10319000692F0E941619892F882F90E0A0E0B0E0D7
:1031A000BC01CD010E940D108AE30E943F0F81E017
:1031B00067E00E9499108091FD009AE0692F0E94BB
:1031C0001619882F90E0A0E0B0E0BC01CD010E946C
:1031D0000D1081E068E00E9499108091FD009AE056
:1031E000692F0E941619892F882F90E0A0E0B0E087
:1031F000BC01CD010E940D10CF91DF910895DF93A6
:10320000CF93CDB7DEB72FEF30E081E060E0A901CA
:103210000E94D8078091FF00882329F481E065E0AF
:1032200040E00E94D006CF91DF910895991B79E08C
:1032300004C0991F961708F0961B881F7A95C9F746
:103240008095089597FB092E05260ED057FD04D0D2
:1032500014D00AD0001C38F4509540953095219533
:103260003F4F4F4F5F4F0895F6F7909580957095BB
:1032700061957F4F8F4F9F4F0895A1E21A2EAA1B91
:10328000BB1BFD010DC0AA1FBB1FEE1FFF1FA21716
:10329000B307E407F50720F0A21BB30BE40BF50B13
:1032A000661F771F881F991F1A9469F7609570959C
:1032B000809590959B01AC01BD01CF0108952F929F
:1032C0003F924F925F926F927F928F929F92AF92B6
:1032D000BF92CF92DF92EF92FF920F931F93CF9303
:1032E000DF93CDB7DEB7CA1BDB0B0FB6F894DEBF9A
:1032F0000FBECDBF09942A88398848885F846E84C0
:103300007D848C849B84AA84B984C884DF80EE8009
:10331000FD800C811B81AA81B981CE0FD11D0FB612
:10332000F894DEBF0FBECDBFED010895F894FFCF36
:103330002030303A30303A30302020414D002030BB
:10334000303A30303A303000414D00504D00312D90
:103350005420322D616C20332D636F6E7400312D3B
:10336000414D20322D504D00312D73746F705F77B9
:1033700020325F6261636B00325F6261636B0000E9
:1033800000000000000000313233673435362D373D
:1033900038396530726C73000102030405060700BA
:00000001FF
